{
  "contractName": "ExampleTokenCrowdsale",
  "abi": [
    {
      "constant": true,
      "inputs": [],
      "name": "rate",
      "outputs": [
        {
          "name": "",
          "type": "uint256"
        }
      ],
      "payable": false,
      "stateMutability": "view",
      "type": "function"
    },
    {
      "constant": true,
      "inputs": [],
      "name": "cap",
      "outputs": [
        {
          "name": "",
          "type": "uint256"
        }
      ],
      "payable": false,
      "stateMutability": "view",
      "type": "function"
    },
    {
      "constant": true,
      "inputs": [],
      "name": "weiRaised",
      "outputs": [
        {
          "name": "",
          "type": "uint256"
        }
      ],
      "payable": false,
      "stateMutability": "view",
      "type": "function"
    },
    {
      "constant": true,
      "inputs": [
        {
          "name": "",
          "type": "address"
        }
      ],
      "name": "contributions",
      "outputs": [
        {
          "name": "",
          "type": "uint256"
        }
      ],
      "payable": false,
      "stateMutability": "view",
      "type": "function"
    },
    {
      "constant": true,
      "inputs": [],
      "name": "capReached",
      "outputs": [
        {
          "name": "",
          "type": "bool"
        }
      ],
      "payable": false,
      "stateMutability": "view",
      "type": "function"
    },
    {
      "constant": true,
      "inputs": [],
      "name": "wallet",
      "outputs": [
        {
          "name": "",
          "type": "address"
        }
      ],
      "payable": false,
      "stateMutability": "view",
      "type": "function"
    },
    {
      "constant": true,
      "inputs": [],
      "name": "investorMinCap",
      "outputs": [
        {
          "name": "",
          "type": "uint256"
        }
      ],
      "payable": false,
      "stateMutability": "view",
      "type": "function"
    },
    {
      "constant": false,
      "inputs": [
        {
          "name": "beneficiary",
          "type": "address"
        }
      ],
      "name": "buyTokens",
      "outputs": [],
      "payable": true,
      "stateMutability": "payable",
      "type": "function"
    },
    {
      "constant": true,
      "inputs": [],
      "name": "investorHardCap",
      "outputs": [
        {
          "name": "",
          "type": "uint256"
        }
      ],
      "payable": false,
      "stateMutability": "view",
      "type": "function"
    },
    {
      "constant": true,
      "inputs": [],
      "name": "token",
      "outputs": [
        {
          "name": "",
          "type": "address"
        }
      ],
      "payable": false,
      "stateMutability": "view",
      "type": "function"
    },
    {
      "inputs": [
        {
          "name": "_rate",
          "type": "uint256"
        },
        {
          "name": "_wallet",
          "type": "address"
        },
        {
          "name": "_token",
          "type": "address"
        },
        {
          "name": "_cap",
          "type": "uint256"
        }
      ],
      "payable": false,
      "stateMutability": "nonpayable",
      "type": "constructor"
    },
    {
      "payable": true,
      "stateMutability": "payable",
      "type": "fallback"
    },
    {
      "anonymous": false,
      "inputs": [
        {
          "indexed": true,
          "name": "purchaser",
          "type": "address"
        },
        {
          "indexed": true,
          "name": "beneficiary",
          "type": "address"
        },
        {
          "indexed": false,
          "name": "value",
          "type": "uint256"
        },
        {
          "indexed": false,
          "name": "amount",
          "type": "uint256"
        }
      ],
      "name": "TokensPurchased",
      "type": "event"
    },
    {
      "constant": true,
      "inputs": [],
      "name": "getTokensLeft",
      "outputs": [
        {
          "name": "",
          "type": "uint256"
        }
      ],
      "payable": false,
      "stateMutability": "view",
      "type": "function"
    }
  ],
  "bytecode": "0x6080604052674563918244f400006006556802b5e3af16b18800006007556000600855600060095534801561003357600080fd5b50604051608080610c1f8339810180604052608081101561005357600080fd5b810190808051906020019092919080519060200190929190805190602001909291908051906020019092919050505080848484600160008190555060008311151561009d57600080fd5b600073ffffffffffffffffffffffffffffffffffffffff168273ffffffffffffffffffffffffffffffffffffffff16141515156100d957600080fd5b600073ffffffffffffffffffffffffffffffffffffffff168173ffffffffffffffffffffffffffffffffffffffff161415151561011557600080fd5b8260038190555081600260006101000a81548173ffffffffffffffffffffffffffffffffffffffff021916908373ffffffffffffffffffffffffffffffffffffffff16021790555080600160006101000a81548173ffffffffffffffffffffffffffffffffffffffff021916908373ffffffffffffffffffffffffffffffffffffffff1602179055505050506000811115156101b057600080fd5b806005819055505083810260098190555050505050610a4b806101d46000396000f3fe6080604052600436106100af576000357c0100000000000000000000000000000000000000000000000000000000900463ffffffff1680632c4e722e146100ba578063355274ea146100e55780634042b66f1461011057806342e94c901461013b5780634f935945146101a0578063521eb273146101cf578063b25d7f5414610226578063de5f986614610251578063ec8ac4d81461027c578063ed5db874146102c0578063fc0c546a146102eb575b6100b833610342565b005b3480156100c657600080fd5b506100cf610438565b6040518082815260200191505060405180910390f35b3480156100f157600080fd5b506100fa610442565b6040518082815260200191505060405180910390f35b34801561011c57600080fd5b5061012561044c565b6040518082815260200191505060405180910390f35b34801561014757600080fd5b5061018a6004803603602081101561015e57600080fd5b81019080803573ffffffffffffffffffffffffffffffffffffffff169060200190929190505050610456565b6040518082815260200191505060405180910390f35b3480156101ac57600080fd5b506101b561046e565b604051808215151515815260200191505060405180910390f35b3480156101db57600080fd5b506101e4610482565b604051808273ffffffffffffffffffffffffffffffffffffffff1673ffffffffffffffffffffffffffffffffffffffff16815260200191505060405180910390f35b34801561023257600080fd5b5061023b6104ac565b6040518082815260200191505060405180910390f35b34801561025d57600080fd5b506102666104b2565b6040518082815260200191505060405180910390f35b6102be6004803603602081101561029257600080fd5b81019080803573ffffffffffffffffffffffffffffffffffffffff169060200190929190505050610342565b005b3480156102cc57600080fd5b506102d56104d3565b6040518082815260200191505060405180910390f35b3480156102f757600080fd5b506103006104d9565b604051808273ffffffffffffffffffffffffffffffffffffffff1673ffffffffffffffffffffffffffffffffffffffff16815260200191505060405180910390f35b6001600080828254019250508190555060008054905060003490506103678382610503565b6000610372826106e0565b9050610389826004546106fe90919063ffffffff16565b600481905550610399848261071f565b8373ffffffffffffffffffffffffffffffffffffffff163373ffffffffffffffffffffffffffffffffffffffff167f6faf93231a456e552dbc9961f58d9713ee4f2e69d15f1975b050ef0911053a7b8484604051808381526020018281526020019250505060405180910390a3610410848361072d565b6104186107f6565b6104228483610861565b50506000548114151561043457600080fd5b5050565b6000600354905090565b6000600554905090565b6000600454905090565b600a6020528060005260406000206000915090505481565b600060055461047b61044c565b1015905090565b6000600260009054906101000a900473ffffffffffffffffffffffffffffffffffffffff16905090565b60065481565b6000670de0b6b3a7640000600854600954038115156104cd57fe5b04905090565b60075481565b6000600160009054906101000a900473ffffffffffffffffffffffffffffffffffffffff16905090565b61050d8282610865565b6000600a60008473ffffffffffffffffffffffffffffffffffffffff1673ffffffffffffffffffffffffffffffffffffffff168152602001908152602001600020549050600061056683836106fe90919063ffffffff16565b9050600654811015801561057c57506007548111155b1515610616576040517f08c379a00000000000000000000000000000000000000000000000000000000081526004018080602001828103825260398152602001807f4572726f723a20636f6e747269627574696f6e20616d6f756e74206d7573742081526020017f6265206265747765656e203520616e642035302065746865720000000000000081525060400191505060405180910390fd5b6001821015156106da576040517f08c379a00000000000000000000000000000000000000000000000000000000081526004018080602001828103825260448152602001807f4572726f723a2074686973206163636f756e742068617320616c72656164792081526020017f6d61646520612070757263686173652e205075726368617365206c696d69742081526020017f697320310000000000000000000000000000000000000000000000000000000081525060600191505060405180910390fd5b50505050565b60006106f76003548361089d90919063ffffffff16565b9050919050565b600080828401905083811015151561071557600080fd5b8091505092915050565b61072982826108db565b5050565b6000600a60008473ffffffffffffffffffffffffffffffffffffffff1673ffffffffffffffffffffffffffffffffffffffff168152602001908152602001600020549050600061078683836106fe90919063ffffffff16565b905080600a60008673ffffffffffffffffffffffffffffffffffffffff1673ffffffffffffffffffffffffffffffffffffffff168152602001908152602001600020819055506107e66107d7610438565b8461089d90919063ffffffff16565b6008540160088190555050505050565b600260009054906101000a900473ffffffffffffffffffffffffffffffffffffffff1673ffffffffffffffffffffffffffffffffffffffff166108fc349081150290604051600060405180830381858888f1935050505015801561085e573d6000803e3d6000fd5b50565b5050565b61086f82826109cf565b60055461088c8261087e61044c565b6106fe90919063ffffffff16565b1115151561089957600080fd5b5050565b6000808314156108b057600090506108d5565b600082840290508284828115156108c357fe5b041415156108d057600080fd5b809150505b92915050565b6108e36104d9565b73ffffffffffffffffffffffffffffffffffffffff166340c10f1983836040518363ffffffff167c0100000000000000000000000000000000000000000000000000000000028152600401808373ffffffffffffffffffffffffffffffffffffffff1673ffffffffffffffffffffffffffffffffffffffff16815260200182815260200192505050602060405180830381600087803b15801561098557600080fd5b505af1158015610999573d6000803e3d6000fd5b505050506040513d60208110156109af57600080fd5b810190808051906020019092919050505015156109cb57600080fd5b5050565b600073ffffffffffffffffffffffffffffffffffffffff168273ffffffffffffffffffffffffffffffffffffffff1614151515610a0b57600080fd5b60008114151515610a1b57600080fd5b505056fea165627a7a72305820d55b8c63363fb07bfa8df6e2970699b5f757d23ac7bf85cd832964f51f34f8160029",
  "source": "pragma solidity ^0.5.0;\r\n\r\nimport \"../node_modules/openzeppelin-solidity/contracts/crowdsale/Crowdsale.sol\";\r\nimport \"../node_modules/openzeppelin-solidity/contracts/crowdsale/emission/MintedCrowdsale.sol\";\r\nimport \"../node_modules/openzeppelin-solidity/contracts/crowdsale/validation/CappedCrowdsale.sol\";\r\n\r\ncontract ExampleTokenCrowdsale is Crowdsale, MintedCrowdsale, CappedCrowdsale {\r\n\r\n\t//minimum investor Contribution - 5000000000000000000\r\n\t//minimum investor Contribution - 50000000000000000000\r\n    uint256 public investorMinCap  = 5000000000000000000;\r\n    uint256 public investorHardCap = 50000000000000000000;\r\n    uint256 private tokensSold = 0;\r\n    uint256 private tokensAvailable = 0;\r\n\r\n    mapping(address => uint256) public contributions;\r\n\r\n    constructor(\r\n        uint256 _rate, \r\n        address payable _wallet, \r\n        ERC20 _token, \r\n        uint256 _cap\r\n    )\r\n\tCrowdsale(_rate, _wallet, _token)\r\n\tCappedCrowdsale(_cap)\r\n\tpublic {\r\n        tokensAvailable = _cap * _rate;\r\n    }\r\n\r\n    function getTokensLeft() view public returns (uint256) {\r\n        return (tokensAvailable - tokensSold) / 1000000000000000000;\r\n    }\r\n\r\n    function _updatePurchasingState(address beneficiary, uint256 weiAmount) internal {\r\n        uint256 _existingContribution = contributions[beneficiary];\r\n        uint256 _newContribution = _existingContribution.add(weiAmount);\r\n        contributions[beneficiary] = _newContribution;\r\n        tokensSold = tokensSold + weiAmount.mul(rate());\r\n    }\r\n\r\n    function _preValidatePurchase(\r\n        address _beneficiary,\r\n        uint256 _weiAmount\r\n    ) internal view {\r\n        super._preValidatePurchase(_beneficiary, _weiAmount);\r\n        uint256 _existingContribution = contributions[_beneficiary];\r\n        uint256 _newContribution = _existingContribution.add(_weiAmount);\r\n        require(_newContribution >= investorMinCap && _newContribution <= investorHardCap, \r\n                \"Error: contribution amount must be between 5 and 50 ether\");\r\n        require(_existingContribution < 1, \r\n                \"Error: this account has already made a purchase. Purchase limit is 1\");\r\n    }\r\n}",
  "sourcePath": "C:/dev/source/blockchain/hw3-capped-crowdsale-token/contracts/ExampleTokenCrowdsale.sol",
  "compiler": {
    "name": "solc",
    "version": "0.5.0+commit.1d4f565a.Emscripten.clang"
  },
  "schemaVersion": "3.0.2",
  "updatedAt": "2019-03-14T02:18:01.884Z",
  "devdoc": {
    "methods": {
      "buyTokens(address)": {
        "details": "low level token purchase ***DO NOT OVERRIDE*** This function has a non-reentrancy guard, so it shouldn't be called by another `nonReentrant` function.",
        "params": {
          "beneficiary": "Recipient of the token purchase"
        }
      },
      "cap()": {
        "return": "the cap of the crowdsale."
      },
      "capReached()": {
        "details": "Checks whether the cap has been reached.",
        "return": "Whether the cap was reached"
      },
      "rate()": {
        "return": "the number of token units a buyer gets per wei."
      },
      "token()": {
        "return": "the token being sold."
      },
      "wallet()": {
        "return": "the address where funds are collected."
      },
      "weiRaised()": {
        "return": "the amount of wei raised."
      }
    }
  },
  "userdoc": {
    "methods": {}
  }
}